:1000000012C019C018C08FC016C015C014C013C0CC
:1000100012C011C010C00FC00EC00DC00CC00BC06C
:100020000AC009C008C011241FBECFE5D4E0DEBF5E
:10003000CDBF8ED0B7C0E4CF20E030E060E674E002
:10004000482F50E0E4E3FDE085B5806185BDCB013C
:100050000197F1F785B58F7E85BDCA01022E02C0DA
:10006000959587950A94E2F780FF02C0CF0101C001
:10007000CB010197F1F72F5F3F4F2830310521F772
:10008000089527E030E060E674E0482F50E0E4E3B4
:10009000FDE085B5806185BDCB010197F1F785B5A0
:1000A0008F7E85BDCA01022E02C0959587950A9460
:1000B000E2F780FF02C0CF0101C0CB010197F1F749
:1000C000215030408FEF2F3F380719F708950F93D5
:1000D0001F93182F062F85B5806185BD28E233E276
:1000E000C9010197F1F785B58F7E85BDC9010197DB
:1000F000F1F7812FA1DF812F9FDF802F9DDF802FE0
:1001000080959ADF85B5806185BD80E694E0019792
:10011000F1F785B58F7E85BD88E893E10197F1F70A
:100120001F910F9108951F920F920FB60F921124F5
:10013000B39B02C0C39801C0C39A0F900FBE0F902B
:100140001F901895BB9A89E185BD88E683BD089507
:10015000CF93DF93C098B89ABB9A89E185BD88E6B2
:1001600083BDC8ECD0E087E064E0B1DF88EE93E0C7
:10017000FE013197F1F70197D9F787E061E1A7DF39
:1001800088EE93E0FE013197F1F70197D9F787E008
:100190006AE09DDF80E29EE4FE013197F1F701976E
:0801A000D9F7E1CFF894FFCF7D
:00000001FF
