:1000000012C024C023C022C021C020C01FC01EC0F7
:100010001DC01CC01BC01AC019C018C017C016C014
:1000200015C015C013C011241FBECFE5D4E0DEBF3C
:10003000CDBF10E0A0E6B0E0E4ECF1E002C0059036
:100040000D92A836B107D9F775D0BAC0D9CF1F9293
:100050000F920FB60F9211242F933F934F935F93FC
:100060006F937F938F939F93AF93BF93EF93FF9380
:10007000F89481B1982F987F903881F028F49834C3
:1000800059F0903649F013C0983841F0903A79F41D
:1000900085E426D084EA11C081E40CC086B7806C68
:1000A00086BF83B190E02ED080E21AD007C090E0E6
:1000B00029D080E215D086B7806C86BF7894FF91F6
:1000C000EF91BF91AF919F918F917F916F915F91D0
:1000D0004F913F912F910F900FBE0F901F90189549
:1000E0005D9BFECF8CB90895AC0190E0FA01E90F59
:1000F000F11D2081222329F05D9BFECF2CB99F5F4B
:10010000F5CF0895CF93DF9300D000D000D0CDB7C6
:10011000DEB74AE0BE016F5F7F4F1FD0CE01019670
:10012000E3DF26960FB6F894DEBF0FBECDBFDF919A
:10013000CF91089510BC8CE089B986E880BD88E134
:100140008AB980E280B911B884E082B985EC86BFB3
:1001500080E690E0C9DF7894FFCFBB274A3031F4C6
:10016000992322F4BDE2909581959F4F01C0BB2752
:10017000FB015527AA27880F991FAA1FA41710F063
:10018000A41B83955051B9F7A05DAA3308F0A95D6F
:10019000A193009779F7B111B1931192CB0100C0EF
:1001A000DC01FC01672F71917723E1F7329704C0DE
:1001B0007C916D9370836291AE17BF07C8F3089569
:0401C000F894FFCFE1
:0801C40073746172740A0000FB
:00000001FF
