:1000000012C022C020C01FC01EC01DC01CC01BC00B
:100010001AC019C018C017C016C015C014C013C02C
:1000200012C011C010C011241FBECFE5D4E0DEBF46
:10003000CDBF24E0A0E6B0E001C01D92A136B2071A
:10004000E1F726D0DAC0DCCF1F920F920FB60F92E5
:1000500011248F93EF93FF93809160048F3F61F0A1
:10006000E091600481E08E0F8093600486B3F0E03D
:10007000E05AFF4F81708083FF91EF918F910F9035
:100080000FBE0F901F9018955D9BFECF8CB9089501
:10009000CF93DF9300D000D000D0CDB7DEB710BC37
:1000A0008CE089B986E880BD88E18AB9B898B998AA
:1000B000C19A8FB780688FBF85B7836085BF8BB7C4
:1000C00080648BBF01E010E0B199FECF80916004A5
:1000D0008823D1F380E6E82E80E0F82E809160043A
:1000E00090E09701205630402817390754F4F70163
:1000F00081917F01882311F081E301C080E3C4DF97
:10010000EDCF8AE0C1DF20E030E040E050E080E069
:100110006091600470E026173707BCF5F901E05ADA
:10012000FF4F9081992339F0B801042E01C0660F6A
:100130000A94EAF7862B7901FFEFEF1AFF0AB7015D
:1001400067707727672B19F04F5F5F4F1BC04AE03E
:10015000BE016F5F7F4F90E01DD080E0E1E0F0E0F6
:10016000EC0FFD1FE80FF11D9081992329F05D9B95
:10017000FECF9CB98F5FF2CF80E286DF970140E02F
:1001800050E080E02F5F3F4FC3CF8AE07DDF1092C9
:1001900060049ACFBB274A3031F4992322F4BDE2A0
:1001A000909581959F4F01C0BB27FB015527AA273A
:1001B000880F991FAA1FA41710F0A41B83955051F4
:1001C000B9F7A05DAA3308F0A95DA193009779F76C
:1001D000B111B1931192CB0100C0DC01FC01672F7A
:1001E00071917723E1F7329704C07C916D9370830E
:0E01F0006291AE17BF07C8F30895F894FFCFD1
:00000001FF
