:1000000012C019C018C017C016C015C014C013C044
:1000100012C011C010C00FC00EC00DC00CC00BC06C
:100020000AC009C008C011241FBECFE5D4E0DEBF5E
:10003000CDBFBFD04EC1E4CF5D9BFECF8CB908953C
:10004000CF93DF9300D000D000D0CDB7DEB74AE029
:10005000BE016F5F7F4F0AD180E0E1E0F0E0EC0F7E
:10006000FD1FE80FF11D9081992329F05D9BFECFC4
:100070009CB98F5FF2CF26960FB6F894DEBF0FBE05
:10008000CDBFDF91CF910895A89AA99A8AE08A9569
:10009000F1F700C0A89885E08A95F1F70000A998CB
:1000A00085E08A95F1F700000895A99885E08A9582
:1000B000F1F70000A89885E08A95F1F70000A99A69
:1000C00085E08A95F1F70000A89A85E08A95F1F716
:1000D00000008AE08A95F1F700C08AE08A95F1F77E
:1000E00000C08AE08A95F1F700C08AE08A95F1F7AE
:1000F00000C0089528E030E087FD02C0A89801C044
:10010000A89A95E09A95F1F70000A99A95E09A953A
:10011000F1F700009AE09A95F1F700C0A99895E0F0
:100120009A95F1F70000880F2150310929F7A0981E
:10013000A99A85E08A95F1F70000989B04C08EE4A7
:100140007BDF80E001C081E0A998A09A0895982FF4
:10015000A09827E030E080E041E050E0A99A65E017
:100160006A95F1F70000989B07C0BA01022E01C002
:10017000660F0A94EAF7862B65E06A95F1F70000AE
:10018000A99865E06A95F1F700002150310930F730
:10019000A09A992311F0A89801C0A89AA99A9AE068
:1001A0009A95F1F700C0A99865E06A95F1F700000B
:1001B000089510BC8CE089B986E880BD88E18AB9D1
:1001C000A09AA19AA89AA99A83E536DF5DDF81E417
:1001D00033DF84E08FDF8823E1F187E52DDF84E0E2
:1001E00089DF81E087DF80E085DF80E383DF8FEFD9
:1001F00081DF8DEC7FDF8FEC97E00197F1F700C096
:10020000000085E419DF40DF82E516DF85E072DF5C
:10021000882389F38CE310DF81E099DFC82F90E019
:100220000FDFC430B1F48CE307DF81E090DFC82F2B
:1002300090E006DF8CE3C23038F0FEDE81E087DF3D
:1002400090E0FEDEC150F6CFF7DE80E080DF90E088
:10025000F7DE2BDF8AE0F0DE9FEF23ED80E39150A5
:1002600020408040E1F700C00000AECFBB274A30FD
:1002700031F4992322F4BDE2909581959F4F01C0FE
:10028000BB27FB015527AA27880F991FAA1FA41770
:1002900010F0A41B83955051B9F7A05DAA3308F064
:1002A000A95DA193009779F7B111B1931192CB0198
:1002B00000C0DC01FC01672F71917723E1F73297D1
:1002C00004C07C916D9370836291AE17BF07C8F331
:0602D0000895F894FFCF31
:00000001FF
