:1000000012C024C023C022C021C020C01FC01EC0F7
:100010001DC01CC01BC01AC019C018C017C016C014
:1000200015C015C013C011241FBECFE5D4E0DEBF3C
:10003000CDBF10E0A0E6B0E0EEE1F9E002C005902F
:100040000D92AA37B107D9F75DD167C4D9CF1F92F6
:100050000F920FB60F921124EF92FF921F932F93DE
:100060003F934F935F936F937F938F939F93AF9340
:10007000BF93EF93FF93CF93DF9300D000D0CDB722
:10008000DEB7F89481B11C82EFECF7E03197F1F71D
:1000900000C00000982F987F903A09F447C048F4B8
:1000A000903641F1903881F1911172C08EE690E066
:1000B0006DC0983B09F44DC0B0F4983A09F068C09F
:1000C00081E790E08DD083B190E098D081E0E8D0D6
:1000D000182F1F928F9385E690E09F938F93CE0108
:1000E00001967C0142C0903C09F44CC0983C09F454
:1000F00049C04EC080E690E073D083B190E07ED0DE
:1001000095D084E0A4D04EC013B11F921F9385E612
:1001100090E09F938F93CE0101967C019F938F93E4
:1001200026D1C7015DD0812F92D025C08BE690E00B
:1001300057D0EFE1FEE43197F1F700C00000FDE099
:10014000FA95F1F7000072D085E081D08823B9F3E9
:1001500029C081E0A5D0182F1F928F9385E690E0EB
:100160009F938F93FE0131967F01FF92EF92FFD014
:10017000C70136D013B90F900F900F900F900F90CA
:100180000F9010C080E08CD086E790E029D00AC0A4
:100190005D9BFECF95E59CB990E030D05D9BFECF96
:1001A00080E28CB986B7806886BF78940F900F90F4
:1001B0000F900F90DF91CF91FF91EF91BF91AF9191
:1001C0009F918F917F916F915F914F913F912F916F
:1001D0001F91FF90EF900F900FBE0F901F901895FA
:1001E000AC0190E0FA01E90FF11D2081222329F0F2
:1001F0005D9BFECF2CB99F5FF5CF0895CF93DF9322
:1002000000D000D000D0CDB7DEB74AE0BE016F5FAE
:100210007F4F8AD0CE010196E3DF26960FB6F89481
:10022000DEBF0FBECDBFDF91CF910895A89AA99AE6
:100230008AE68A95F1F700C0A89885E38A95F1F7D8
:100240000000A99885E38A95F1F70000089528E059
:1002500030E087FD02C0A89801C0A89A95E39A955E
:10026000F1F70000A99A95E39A95F1F700009AE654
:100270009A95F1F700C0A99895E39A95F1F70000D7
:10028000880F2150310929F7A098A99A85E38A950A
:10029000F1F7000083B3A998A09A80958170089522
:1002A000982FA09827E030E080E041E050E0A99A44
:1002B00065E36A95F1F70000989B07C0BA01022E2A
:1002C00001C0660F0A94EAF7862B65E36A95F1F799
:1002D0000000A99865E36A95F1F700002150310903
:1002E00030F7A09A992311F0A89801C0A89AA99A6A
:1002F0009AE69A95F1F700C0A99865E36A95F1F737
:100300000000089510BC8CE089B986E880BD88E1C2
:100310008AB911B884E082B985EC86BFA09AA19A07
:10032000A89AA99A7894FFCFBB274A3031F4992331
:1003300022F4BDE2909581959F4F01C0BB27FB0140
:100340005527AA27880F991FAA1FA41710F0A41BCE
:1003500083955051B9F7A05DAA3308F0A95DA19328
:10036000009779F7B111B1931192CB01F9C1AEE0C9
:10037000B0E0ECEBF1E0A8C20D891E8986E08C8329
:100380001A8309838FEF9FE79E838D83AE01475EBB
:100390005F4F6F89788DCE01019609D02F81388506
:1003A000F801E20FF31F10822E96E4E0A9C2ACE040
:1003B000B0E0ECEDF1E07AC27C016B018A01FC0156
:1003C00017821682838181FFB0C1CE0101964C0154
:1003D000F7019381F60193FD859193FF81916F0160
:1003E000882309F49EC1853239F493FD859193FFEA
:1003F00081916F01853221F4B70190E0C1D1E8CF3E
:10040000512C312C20E02032A0F48B3269F030F4F2
:10041000803259F0833269F420612CC08D3239F07A
:10042000803339F4216026C02260246023C0286014
:1004300021C027FD27C030ED380F3A3078F426FF71
:1004400006C0FAE05F9E300D1124532E13C08AE0DF
:10045000389E300D1124332E20620CC08E3221F4D0
:1004600026FD5FC1206406C08C3611F4206802C0EE
:10047000883641F4F60193FD859193FF81916F01D8
:100480008111C1CF982F9F7D9554933028F40C5F34
:100490001F4FFFE3F9830DC0833631F0833771F0CE
:1004A000833509F057C021C0F801808189830E5F30
:1004B0001F4F44244394512C540114C03801F2E0DE
:1004C0006F0E711CF801A080B18026FF03C0652D5E
:1004D00070E002C06FEF7FEFC5012C8736D12C0191
:1004E00083012C852F77222E16C03801F2E06F0E83
:1004F000711CF801A080B18026FF03C0652D70E05B
:1005000002C06FEF7FEFC5012C8714D12C012C8521
:100510002068222E830123FC19C0832D90E0481609
:100520005906A0F4B70180E290E02AD13A94F5CFC1
:10053000F50127FC859127FE81915F01B70190E0CD
:100540001FD131103A94F1E04F1A5108411451046F
:1005500079F7DEC0843611F0893631F5F80127FFCE
:1005600007C060817181828193810C5F1F4F08C039
:1005700060817181072E000C880B990B0E5F1F4F55
:100580002F76722E97FF09C0909580957095619592
:100590007F4F8F4F9F4F2068722E2AE030E0A401DA
:1005A00027D1A82EA81843C0853729F42F7EB22E54
:1005B0002AE030E025C0F22FF97FBF2E8F36C1F040
:1005C00018F4883579F0ADC0803719F0883721F0FC
:1005D000A8C02F2F2061B22EB4FE0DC08B2D8460D9
:1005E000B82E09C024FF0AC09F2F9660B92E06C0FE
:1005F00028E030E005C020E130E002C020E132E038
:10060000F801B7FE07C060817181828193810C5F20
:100610001F4F06C06081718180E090E00E5F1F4F28
:10062000A401E6D0A82EA818FB2DFF777F2E76FE1A
:100630000BC0372D3E7FA51450F474FE0AC072FC27
:1006400008C0372D3E7E05C0BA2C372D03C0BA2C0A
:1006500001C0B52C34FF0DC0FE01EA0DF11D8081F3
:10066000803311F4397E09C032FF06C0B394B394CD
:1006700004C0832F867809F0B39433FD12C030FF95
:1006800006C05A2CB31418F4530C5B18B32CB314D3
:1006900060F4B70180E290E03C8772D0B3943C856F
:1006A000F6CFB31410F43B1801C0312C34FF11C045
:1006B000B70180E390E03C8763D03C8532FF16C0F1
:1006C00031FD03C088E790E002C088E590E0B70103
:1006D0000CC0832F867851F031FF02C08BE201C03D
:1006E00080E237FD8DE2B70190E04AD0A51430F4E6
:1006F000B70180E390E044D05A94F8CFAA94F40173
:10070000EA0DF11D8081B70190E03AD0A110F6CF3B
:10071000332009F45DCEB70180E290E031D03A9405
:10072000F7CFF7018681978102C08FEF9FEF2C965C
:10073000E2E1D8C0FC010590615070400110D8F78B
:10074000809590958E0F9F1F0895FC016150704019
:1007500001900110D8F7809590958E0F9F1F0895F6
:10076000DC01FC01672F71917723E1F7329704C018
:100770007C916D9370836291AE17BF07C8F30895A3
:100780000F931F93CF93DF93FB01238121FD03C0C0
:100790008FEF9FEF28C022FF16C04681578124812A
:1007A00035814217530744F4A081B1819D012F5F29
:1007B0003F4F318320838C93268137812F5F3F4FBA
:1007C0003783268310C0EB01092F182F0084F18591
:1007D000E02D0995892BE1F68E819F8101969F83FB
:1007E0008E83812F902FDF91CF911F910F910895CC
:1007F000FA01AA27283051F1203181F1E8946F9352
:100800006E7F6E5F7F4F8F4F9F4FAF4FB1E03ED0F7
:10081000B4E03CD0670F781F891F9A1FA11D680F95
:10082000791F8A1F911DA11D6A0F711D811D911DC8
:10083000A11D20D009F468943F912AE0269F11243D
:100840003019305D3193DEF6CF010895462F4770A1
:10085000405D4193B3E00FD0C9F7F6CF462F4F70FC
:10086000405D4A3318F0495D31FD4052419302D05A
:10087000A9F7EACFB4E0A695979587957795679500
:10088000BA95C9F700976105710508959B01AC0100
:100890000A2E06945795479537952795BA95C9F727
:1008A000620F731F841F951FA01D08952F923F9202
:1008B0004F925F926F927F928F929F92AF92BF9270
:1008C000CF92DF92EF92FF920F931F93CF93DF931C
:1008D000CDB7DEB7CA1BDB0B0FB6F894DEBF0FBE79
:1008E000CDBF09942A88398848885F846E847D84C6
:1008F0008C849B84AA84B984C884DF80EE80FD80C8
:100900000C811B81AA81B981CE0FD11D0FB6F8943D
:0E091000DEBF0FBECDBFED010895F894FFCFFE
:10091E002D41573A0020252E325800450A00420A32
:0A092E00002D41523A004C0A00006F
:00000001FF
