:1000000012C024C023C022C021C020C01FC01EC0F7
:100010001DC01CC01BC01AC019C018C017C016C014
:1000200015C014C013C011241FBECFE5D4E0DEBF3D
:10003000CDBF11E0A0E6B0E0E0ECFBE002C005902F
:100040000D92A039B107D9F79AD0B8C5D9CF20E021
:1000500004C05D9BFECFECB92F5FFC01E20FF11DE8
:10006000E081EE23B1F70895AC9AAD9A8AE08A95C3
:10007000F1F7AC9885E0982F9A95F1F7AD988A95AD
:10008000F1F7089528E030E045E05AE087FD02C02E
:10009000AC9801C0AC9A942F9A95F1F7AD9A942F31
:1000A0009A95F1F7952F9A95F1F7AD98942F9A9527
:1000B000F1F72150304011F0880FE8CFA498AD9AA5
:1000C00085E08A95F1F79C9902C081E005C05D9BAF
:1000D000FECF8EE48CB980E0AD98A49A0895E82F05
:1000E000A49840E027E030E055E061E070E0AD9A90
:1000F000852F8A95F1F79C9B08C0CB01022E02C088
:10010000880F991F0A94E2F7482B852F8A95F1F7FB
:10011000AD98852F8A95F1F7215030408FEF2F3F12
:10012000380729F7A49AEE2311F0AC9801C0AC9AD5
:10013000AD9A8AE08A95F1F7AD9885E08A95F1F756
:10014000842F08950F931F93DF93CF9300D000D097
:1001500000D0CDB7DEB78E010F5F1F4FB8014AE068
:1001600050E0E9D4C80173DF26960FB6F894DEBFDD
:100170000FBECDBFCF91DF911F910F9108952F92A8
:100180003F924F925F926F927F928F929F92AF9227
:10019000BF92CF92DF92EF92FF920F931F93DF9364
:1001A000CF93CDB7DEB76A970FB6F894DEBF0FBE18
:1001B000CDBF10BC8CE089B986E880BD88E18AB9E2
:1001C000A49AA59AAC9AAD9A9AEAE92E17C04CDF88
:1001D0008EEE58DF8E2D56DF47DF8FEE53DF0E2D6C
:1001E00010E00A5A104080E07ADF21E030E02C0F66
:1001F0003D1F020F131FD8018C93E394BFEBBE1574
:1002000030F799840A858B84EC847B88CC886D8850
:10021000AE8880E690E01BDF988E1F8A10E08F8901
:10022000988D802B912B8EDF85E690E010DF8A8EF3
:10023000198EFF24898D9A8D8E299F2983DF8BE665
:1002400090E005DF572C4424DD24C2018C299D2930
:1002500079DF80E790E0FBDE962C8824BB24C40184
:100260008A299B296FDF5D9BFECFEAE0ECB9FCDEBB
:100270008EEE08DF84EF06DF8EE204DF80E197E296
:100280000197F1F7F1DE8EEEFDDE86EFFBDEECDEB0
:100290008FEEF8DE80E023DF382E2224E5DE8EEEBE
:1002A000F1DE87EFEFDEE0DE8FEEECDE80E017DFE1
:1002B0007101E80EF11CAD9885E08A95F1F7AC98D4
:1002C00085E08A95F1F7AD9A85E08A95F1F7AC9AC9
:1002D00085E08A95F1F78AE08A95F1F78AE08A95B8
:1002E000F1F78AE08A95F1F78AE08A95F1F785E7D8
:1002F00090E0ADDEC70126DF22EF3BEAE20EF31EFF
:1003000000E010E0C801B70191D120E03AE840E4F4
:100310005FE346D03AD15B016C0189E790E097DE5C
:10032000C50110DF8CED9BE0A0E0B0E0A80EB91E87
:10033000CA1EDB1E60E070EB8FE89EEFA601950100
:1003400086D379018A018EE790E081DEC701FADE6B
:1003500083E890E07CDE8CE294EFAFEFBFEFA80E75
:10036000B91ECA1EDB1EEA0CFB1C0C1D1D1DC8019C
:10037000B70120E130E040E050E069D3DA01C90183
:10038000E1DE5D9BFECF9AE09CB980E29EE4E8EC62
:10039000F0E03197F1F70197D1F78AEAE82E17CF0D
:1003A000A0E2B0E0E5EDF1E08FC369837A838B834F
:1003B0009C832D833E834F835887CE010196BE01D7
:1003C000675F7F4FCCD2CE010596BE016F5E7F4F37
:1003D000C6D29985923088F089898230C8F09430ED
:1003E00019F4823051F404C0843029F4923081F43D
:1003F00087E890E0C6C0923049F420E09A858A8967
:10040000981321E02A87CE010996BBC0823049F4B7
:1004100020E09A858A89981321E02A8BCE014196A3
:10042000B0C02D843E844F8458886D887E888F8824
:10043000988CEE24FF248701AA24BB24650140E0A8
:1004400050E060E070E0E0E0F0E0C10181709070A9
:10045000892BE9F0E60CF71C081D191D9A01AB0168
:100460002A0D3B1D4C1D5D1D80E090E0A0E0B0E03A
:10047000E614F7040805190520F481E090E0A0E0F7
:10048000B0E0BA01A901480F591F6A1F7B1FAA0CCF
:10049000BB1CCC1CDD1C97FE08C081E090E0A0E0F6
:1004A000B0E0A82AB92ACA2ADB2A3196E032F1053F
:1004B00049F0660C771C881C991C56944794379415
:1004C0002794C3CFFA85EA892B893C898B859C8543
:1004D000280F391F2E5F3F4F17C0CA0181709070DF
:1004E000892B61F016950795F794E79480E090E0EA
:1004F000A0E0B0E8E82AF92A0A2B1B2B769567952D
:10050000579547952F5F3F4F77FDE7CF0CC0440FBE
:10051000551F661F771F17FD4160EE0CFF1C001F63
:10052000111F21503040403090E0590790E069079A
:1005300090E4790760F32B8F3C8FDB01CA018F7742
:100540009070A070B07080349105A105B10561F480
:1005500047FD0AC0E114F1040105110529F0405CD2
:100560005F4F6F4F7F4F40781A8EFE1711F081E07A
:100570008A8F4D8F5E8F6F8F78A383E0898FCE0136
:10058000499618D1A096E2E1BBC2ACE0B0E0EAEC3B
:10059000F2E0AAC269837A838B839C83CE010196A1
:1005A000BE016B5F7F4FDBD18D81823061F1823084
:1005B00050F1843021F48E81882351F12EC02F8197
:1005C000388537FD20C06E812F3131051CF0662340
:1005D000F9F023C08EE190E0821B930B29853A85C8
:1005E0004B855C8504C056954795379527958A9528
:1005F000D2F76623B1F050954095309521953F4F45
:100600004F4F5F4F0EC020E030E040E050E009C0A7
:100610002FEF3FEF4FEF5FE704C020E030E040E016
:1006200050E8B901CA012C96E2E07AC2A8E0B0E035
:10063000EBE1F3E051C27B018C016115710581058D
:10064000910519F482E089835FC083E089838EE19C
:10065000C82ED12CDC82CB82ED82FE820F831887DC
:10066000C801B70158D0FC013197F7FF3BC02227E2
:1006700033272E1B3F0B57016801022E04C0D6946E
:10068000C794B794A7940A94D2F740E050E060E092
:1006900070E081E090E0A0E0B0E004C0880F991F16
:1006A000AA1FBB1F2A95D2F70197A109B1098E2174
:1006B0009F21A023B1230097A105B10521F041E0BE
:1006C00050E060E070E04A295B296C297D294D8368
:1006D0005E836F8378878EE190E08E1B9F0B9C83F7
:1006E0008B8312C0309781F00E2E04C0EE0CFF1CDD
:1006F000001F111F0A94D2F7ED82FE820F83188724
:10070000CE1ADF0ADC82CB821A82CE01019652D049
:100710002896EAE0FDC1EF92FF920F931F937B01B1
:100720008C0180E0E81680E0F80681E0080780E0B0
:10073000180788F48FEFE816F1040105110531F070
:1007400028F088E090E0A0E0B0E017C080E090E002
:10075000A0E0B0E012C080E0E81680E0F80680E09B
:10076000080781E0180728F088E190E0A0E0B0E0F9
:1007700004C080E190E0A0E0B0E020E230E040E0A2
:1007800050E0281B390B4A0B5B0B04C016950795EC
:10079000F794E7948A95D2F7F701E157FF4F8081EC
:1007A000281B310941095109C9011F910F91FF907F
:1007B000EF900895DF92EF92FF920F931F93FC0149
:1007C000E480F58006811781D1808081823048F4F1
:1007D00080E090E0A0E1B0E0E82AF92A0A2B1B2B88
:1007E000A5C0843009F49FC0823021F4EE24FF2498
:1007F000870105C0E114F1040105110519F4E0E0D9
:10080000F0E096C0628173819FEF623879070CF047
:100810005BC022E83FEF261B370B2A3131052CF055
:1008200020E030E040E050E02AC0B801A701022EED
:1008300004C076956795579547950A94D2F781E05D
:1008400090E0A0E0B0E004C0880F991FAA1FBB1F72
:100850002A95D2F70197A109B1098E219F21A023E2
:10086000B1230097A105B10521F081E090E0A0E05F
:10087000B0E09A01AB01282B392B4A2B5B2BDA0114
:10088000C9018F779070A070B07080349105A10578
:10089000B10539F427FF09C0205C3F4F4F4F5F4F30
:1008A00004C0215C3F4F4F4F5F4FE0E0F0E020304D
:1008B000A0E03A07A0E04A07A0E45A0710F0E1E000
:1008C000F0E079018A0127C06038710564F5FB0109
:1008D000E158FF4FD801C7018F779070A070B070BA
:1008E00080349105A105B10539F4E7FE0DC080E41F
:1008F00090E0A0E0B0E004C08FE390E0A0E0B0E0C2
:10090000E80EF91E0A1F1B1F17FF05C01695079555
:10091000F794E794319687E016950795F794E79456
:100920008A95D1F705C0EE24FF248701EFEFF0E0B0
:100930006E2F679566276795902F9F77D794DD2454
:10094000D7948E2F8695492F462B582F5D29B701B6
:10095000CA011F910F91FF90EF90DF900895FC0165
:10096000DB01408151812281622F6F7770E0221F6D
:100970002227221F9381892F880F822B282F30E076
:10098000991F9927991F11969C931197211531054D
:10099000A9F5411551056105710511F482E037C0D3
:1009A00082E89FEF13969C938E9312979A01AB0166
:1009B00067E0220F331F441F551F6A95D1F783E06C
:1009C0008C930DC0220F331F441F551F12968D911B
:1009D0009C911397019713969C938E9312972030B6
:1009E00080E0380780E0480780E4580758F3149601
:1009F0002D933D934D935C93179708952F3F3105A9
:100A000079F4411551056105710519F484E08C9361
:100A1000089564FF03C081E08C9312C01C9210C043
:100A20002F57304013963C932E93129783E08C936C
:100A300087E0440F551F661F771F8A95D1F77064B2
:100A400014964D935D936D937C931797089597FB40
:100A5000092E05260ED057FD04D014D00AD0001C54
:100A600038F450954095309521953F4F4F4F5F4F4B
:100A70000895F6F790958095709561957F4F8F4F0B
:100A80009F4F0895A1E21A2EAA1BBB1BFD010DC0AA
:100A9000AA1FBB1FEE1FFF1FA217B307E407F5072E
:100AA00020F0A21BB30BE40BF50B661F771F881F0A
:100AB000991F1A9469F760957095809590959B01A0
:100AC000AC01BD01CF0108952F923F924F925F92EA
:100AD0006F927F928F929F92AF92BF92CF92DF924E
:100AE000EF92FF920F931F93CF93DF93CDB7DEB7B3
:100AF000CA1BDB0B0FB6F894DEBF0FBECDBF099447
:100B00002A88398848885F846E847D848C849B849D
:100B1000AA84B984C884DF80EE80FD800C811B81AB
:100B2000AA81B981CE0FD11D0FB6F894DEBF0FBEDA
:100B3000CDBFED010895FB019F01E8944230BCF068
:100B40004532ACF44A3029F497FB1EF49095819518
:100B50009F4F642F77271ED0805D8A330CF0895D0C
:100B60008193CB010097A9F716F45DE251931082AF
:100B7000C90100C0DC01FC01672F71917723E1F707
:100B8000329704C07C916D9370836291AE17BF075A
:100B9000C8F30895AA1BBB1B51E107C0AA1FBB1FC6
:100BA000A617B70710F0A61BB70B881F991F5A95F9
:100BB000A9F780959095BC01CD010895F894FFCFD9
:100BC0004143353D00204143363D00204D433D002B
:100BD000204D443D0055543D002058313D002058E3
:100BE000323D0020543D00000000000000000000E5
:100BF00001020203030303040404040404040405BF
:100C00000505050505050505050505050505050693
:100C10000606060606060606060606060606060674
:100C20000606060606060606060606060606060763
:100C30000707070707070707070707070707070744
:100C40000707070707070707070707070707070734
:100C50000707070707070707070707070707070724
:100C60000707070707070707070707070707070813
:100C700008080808080808080808080808080808F4
:100C800008080808080808080808080808080808E4
:100C900008080808080808080808080808080808D4
:100CA00008080808080808080808080808080808C4
:100CB00008080808080808080808080808080808B4
:100CC00008080808080808080808080808080808A4
:100CD0000808080808080808080808080808080894
:100CE000080808080808080808080808080808008C
:00000001FF
