:1000000012C019C018C017C016C015C014C013C044
:1000100012C011C010C00FC00EC00DC00CC00BC06C
:100020000AC009C008C011241FBECFE5D4E0DEBF5E
:10003000CDBF02D059C0E4CFCF93DF9300D000D022
:100040001F92CDB7DEB79E012A5F3F4F41E050E0DF
:100050008E9A96986FE788E391E0615080409040D7
:10006000E1F700C00000969A8E988699FECF80B383
:100070008699FECFFE01319667E070E080B385E897
:100080008A95F1F70000869B09C0A081CA01062E5F
:1000900001C0880F0A94EAF78A2B80838699FECFE5
:1000A0006150710958F73196E217F30729F76AEBA7
:1000B0006A95F1F700C08E9A969AEB8169818A81E0
:1000C00090E0860F911D8E0F911D6C81860F911D02
:1000D0006D8170E08617970709F0BACFEF3110F005
:0C00E000C09AB6CFC098B4CFF894FFCF00
:00000001FF
