:1000000012C019C018C017C016C015C014C013C044
:1000100012C011C010C00FC00EC00DC00CC00BC06C
:100020000AC009C008C011241FBECFE5D4E0DEBF5E
:10003000CDBF54D079C0E4CFCF93FC018E9A96986F
:100040002FE788E391E0215080409040E1F700C025
:100050000000969A8E988699FECF869BFECF869951
:10006000FECFDF011996AF01425F5F4F61E070E0A4
:1000700027E030E0869BFECF85E88A95F1F7000007
:10008000869B09C0CC91CB01022E01C0880F0A9437
:10009000EAF78C2B8C938699FECF2150310950F7CB
:1000A0001196A417B50721F72AEB2A95F1F700C09E
:1000B0008E9A969A51854385828590E0850F911D91
:1000C000840F911D2485820F911D258530E08217B4
:1000D000930711F057834087CF910895CF93DF9313
:1000E000CDB7DEB72F970FB6F894DEBF0FBECDBFEA
:1000F000BC9AC49880E390E09A83898386E08B83DE
:1001000080E48C838FEB8D83CE010F969F838E834B
:10011000CE01019691DF8823D9F389858F3110F0C4
:0C012000C49AF6CFC498F4CFF894FFCF37
:00000001FF
