:1000000012C021C020C01FC01EC01DC01CC01BC00C
:100010001AC019C018C018C038C015C014C013C009
:1000200012C011C010C011241FBECFE5D4E0DEBF46
:10003000CDBF20E0A0E6B0E001C01D92A03AB2071B
:10004000E1F744D044C0DCCF1F920F920FB60F925D
:1000500011248F939F93EF93FF93E0919F0081E092
:100060008E0F80939F009CB1F0E0E058FF4F90838B
:100070008E3111F410929F00FF91EF919F918F911B
:100080000F900FBE0F901F9018951F920F920FB6F2
:100090000F9211248F939F93EF93FF93E0917E0033
:1000A00081E08E0F80937E00F0E0E05AFF4F908158
:1000B0009CB98E3111F410927E00FF91EF919F91C7
:1000C0008F910F900FBE0F901F901895FFCFF8944F
:0200D000FFCF60
:00000001FF
