:1000000009C00EC00DC00CC00BC00AC009C008C09A
:1000100007C006C011241FBECFE9CDBF02D038C033
:10002000EFCFB89AC09ABC98C49883EC8FBD85E096
:1000300083BF12BE16BE19BC19BE20E030E060EED0
:100040007EE2AFEF40EF50E006C026BFCB01019744
:10005000F1F72F5F3F4F2F3F3105BCF3A6BF80E282
:100060009EE4FA013197F1F70197D9F72EEF26BFF9
:10007000CB010197F1F72150D0F716BE80E29EE444
:10008000FA013197F1F70197D9F720E030E0E3CF9B
:04009000F894FFCF12
:00000001FF
