:1000000012C024C023C022C021C020C01FC01EC0F7
:100010001DC01CC01BC01AC019C018C017C016C014
:1000200015C014C013C011241FBECFE5D4E0DEBF3D
:10003000CDBF10E0A0E6B0E0ECE5F1E002C0059035
:100040000D92AE36B107D9F71BD086C0D9CF8CE25E
:1000500087BB81E58DB908958FB9779BFECFC29894
:100060008FB10895AC0190E0FA01E90FF11D2081F4
:10007000222329F05D9BFECF2CB99F5FF5CF089519
:10008000CF93DF9300D000D000D0CDB7DEB710BC47
:1000900083E389B986E880BD88E18AB9D8DF10E0BA
:1000A000C298812FD9DFC29A8E37B1F4C298D4DFBB
:1000B000182FC29A80E690E0D5DF4AE0BE016F5F5C
:1000C0007F4F812F90E015D0CE010196CBDF5D9B55
:1000D000FECF8AE08CB903C086E690E0C3DF2FEF45
:1000E00084E39CE0215080409040E1F700C0000094
:1000F000D7CFBB274A3031F4992322F4BDE2909543
:1001000081959F4F01C0BB27FB015527AA27880F68
:10011000991FAA1FA41710F0A41B83955051B9F77B
:10012000A05DAA3308F0A95DA193009779F7B111FA
:10013000B1931192CB0100C0DC01FC01672F7191DA
:100140007723E1F7329704C07C916D9370836291BD
:0C015000AE17BF07C8F30895F894FFCF66
:0E015C004F4B2E2E20004641494C45440A00D0
:00000001FF
