:1000000012C019C018C017C016C015C014C013C044
:1000100012C011C010C00FC00EC00DC00CC00BC06C
:100020000AC009C008C011241FBECFE5D4E0DEBF5E
:10003000CDBF0DD096C0E4CF8FB9779BFECF8FE1B7
:100040009EE40197F1F700C000008FB10895CF93AF
:10005000DF9300D000D000D0CDB7DEB710BC8CE06D
:1000600089B986E880BD88E18AB9BC9887B38C627B
:1000700087BB88B38C6388BB82E58DB91EB880E6E8
:10008000DBDF86EBD9DF2FEF80E792E02150804065
:100090009040E1F700C0000085EFCEDF182F85E724
:1000A000CBDF812F8160C8DF2FEF80E792E0215006
:1000B00080409040E1F700C0000080EDBDDF8F3F41
:1000C000A9F04AE0BE016F5F7F4F90E017D080E05B
:1000D000E1E0F0E0EC0FFD1FE80FF11D90819923A6
:1000E00029F05D9BFECF9CB98F5FF2CF2FEF89E6A1
:1000F00098E1215080409040E1F7DDCFBB274A30A6
:1001000031F4992322F4BDE2909581959F4F01C06F
:10011000BB27FB015527AA27880F991FAA1FA417E1
:1001200010F0A41B83955051B9F7A05DAA3308F0D5
:10013000A95DA193009779F7B111B1931192CB0109
:1001400000C0DC01FC01672F71917723E1F7329742
:1001500004C07C916D9370836291AE17BF07C8F3A2
:060160000895F894FFCFA2
:00000001FF
