:1000000012C019C018C017C016C015C014C013C044
:1000100012C011C010C00FC00EC00DC00CC00BC06C
:100020000AC009C008C011241FBECFE5D4E0DEBF5E
:10003000CDBF0CD024C0E4CF80E187BB80E48DB974
:1000400008958FB9779BFECF8FB10895DF93CF933B
:1000500000D00F92CDB7DEB780E187BB80E48DB9C9
:100060001A828EE78B838B818FB9779BFECF8FB1FE
:10007000898389818E37B1F389818F5FF3CFF894BB
:02008000FFCFB0
:00000001FF
