:1000000012C024C023C022C021C020C01FC01EC0F7
:100010001DC01CC01BC01AC019C018C017C016C014
:1000200015C014C013C011241FBECFE5D4E0DEBF3D
:10003000CDBF10E0A0E6B0E0E2EAF0E002C005903B
:100040000D92AC36B107D9F702D029C0D9CF10BC78
:1000500083E389B986E880BD88E18AB94AE028EC63
:1000600030E05F9BFECF9CB180E004C05D9BFECF83
:10007000ECB98F5FE82FF0E0E05AFF4FE081EE230C
:10008000A9F75D9BFECF9CB95D9BFECF4CB984EF79
:1000900091E0F9013197F1F70197D9F7E2CFF894A0
:0200A000FFCF90
:0C00A20052656365697665643A200000D1
:00000001FF
