:1000000012C024C023C022C021C020C01FC01EC0F7
:100010001DC01CC01BC01AC019C018C017C016C014
:1000200015C014C013C011241FBECFE5D4E0DEBF3D
:10003000CDBF10E0A0E6B0E0E0E4F1E002C0059042
:100040000D92A836B107D9F74DD078C0D9CF8FB966
:10005000779BFECF8FB10895CF93DF931F92CDB7DB
:10006000DEB7C2988F7180626983F1DF6981862F64
:10007000EEDFC29A0F90DF91CF910895BC98C49A99
:1000800087B38C6287BB80E58DB981E08EB9C29A57
:10009000A49AA598AC986EE382E0DEDF6EE381E07F
:1000A000DBDFC29886E0D3DF8FEFD1DFC29A682F03
:1000B00086E0D2DF6AE485E0CFDF8FE097E2019748
:1000C000F1F700C0000063E083E0C6DF65EA84E08A
:1000D000C3DF67E087E0C0DF6BE28AE0BDDF6BE291
:1000E00080E1BACF10BC8CE089B986E880BD88E198
:1000F0008AB9C4DF61E081E1AFDF8FE097E2019769
:10010000F1F700C000008F98979A8799FECF80E0A2
:10011000E82FF0E0E05AFF4F9081992329F05D9B92
:10012000FECF9CB98F5FF4CF9FEF24E38CE091501A
:1001300020408040E1F700C00000E7CFF894FFCFF7
:0801400053656E642E2E2000B1
:00000001FF
