:1000000012C019C018C017C016C015C014C013C044
:1000100012C011C010C00FC00EC00DC00CC00BC06C
:100020000AC009C008C011241FBECFE5D4E0DEBF5E
:10003000CDBF46D064C0E4CF8FB9779BFECF8FB1E0
:100040000895CF93DF931F92CDB7DEB7C2988F711B
:1000500080626983F1DF69816FB9779BFECFC29AB5
:100060000F90DF91CF910895CF93C82FC1986BE087
:1000700080E0E7DF8DE091E00197F1F700C000003C
:10008000C29881EED9DFC29A95E59A95F1F7000002
:10009000C29880EAD1DFCFB9779BFECFC29AC19ACE
:1000A000CF910895BC9887B38C6287BB88B38C636B
:1000B00088BB82E58DB91EB8A19AA198C198089510
:1000C000B89A10BC8CE089B986E880BD88E18AB90D
:1000D000E9DF62E085E0B5DF61E081E1B2DF6AE09F
:1000E00080E0AFDF8DE091E00197F1F700C0000004
:1000F000C19AC09A83E2B8DFC098C098FACFF8944A
:02010000FFCF2F
:00000001FF
