:1000000012C019C018C017C016C015C014C013C044
:1000100012C011C010C00FC00EC00DC00CC00BC06C
:100020000AC009C008C011241FBECFE5D4E0DEBF5E
:10003000CDBF1CD045C0E4CFC2988F7180628FB90C
:10004000779BFECF8FB16FB9779BFECFC29A089591
:10005000BC9887B38C6287BB88B38C6388BB82E50E
:100060008DB91EB8A09AA198A8980895B89A10BC06
:100070008CE089B986E880BD88E18AB9E9DF62E071
:1000800085E0DADF61E081E1D7DF6AE080E0D4DF9C
:100090008DE091E00197F1F700C00000A89AA598C3
:1000A000AD989D9B02C0C09A01C0C0989FEF24E309
:1000B0008CE0915020408040E1F700C00000F1CF7B
:0400C000F894FFCFE2
:00000001FF
