:1000000012C024C023C022C021C020C01FC01EC0F7
:100010001DC01CC01BC01AC019C018C017C016C014
:1000200015C014C013C011241FBECFE5D4E0DEBF3D
:10003000CDBF10E0A0E6B0E0E8E5F2E002C0059038
:100040000D92A837B107D9F746D004C1D9CF20E027
:1000500004C05D9BFECFECB92F5FFC01E20FF11DE8
:10006000E081EE23B1F70895C2988F718FB9779B25
:10007000FECF8FB18FEF8FB9779BFECF8FB1C29A32
:100080000895C2988F7180628FB9779BFECF8FB130
:100090006FB9779BFECF8FB1C29A08950F931F93CC
:1000A000DF93CF9300D000D000D0CDB7DEB78E0164
:1000B0000F5F1F4FB8014AE050E089D0C801C7DF89
:1000C00026960FB6F894DEBF0FBECDBFCF91DF915D
:1000D0001F910F9108958F929F92AF92BF92CF92EE
:1000E000DF92EF92FF920F931F93CF93DF9310BC99
:1000F0008CE089B986E880BD88E18AB9BC98C49A49
:1001000087B38C6287BB80E58DB981E08EB9C29AD6
:10011000A49AA598AC9880E197E20197F1F785E061
:1001200062E0AFDF81E161E0ACDF80E06BE7A9DF97
:100130008EE091E00197F1F7AC9A8F98979A3EE0A4
:10014000A32E31E0B32E28ECC22ED12C88248A9421
:100150009AE0992E80E2E82E8EE4F82E8799FECF61
:1001600080E06BE78EDFC5010197F1F7AC9A80E67E
:1001700090E06DDF80E078DF082FC29880E197E2A1
:10018000F6013197F1F70197D9F78FB8779BFECF3A
:100190001FB1C29A88E068DF88E690E058DF802FC0
:1001A00090E07CDF8EE690E052DFC12FD0E0CE0100
:1001B00075DF5D9BFECF9CB8C670D070CD2B19F05B
:1001C00087E0612F5EDFC7010197F1F7C7CFFB0121
:1001D0009F01E8944230BCF04532ACF44A3029F437
:1001E00097FB1EF4909581959F4F642F77271ED023
:1001F000805D8A330CF0895D8193CB010097A9F76C
:1002000016F45DE251931082C90100C0DC01FC01CB
:10021000672F71917723E1F7329704C07C916D933A
:1002200070836291AE17BF07C8F30895AA1BBB1B6A
:1002300051E107C0AA1FBB1FA617B70710F0A61BE6
:10024000B70B881F991F5A95A9F780959095BC0107
:08025000CD010895F894FFCFE1
:10025800526561642E2E20006366673A2000207381
:0802680074617475733A200003
:00000001FF
