:1000000012C024C023C022C021C020C01FC01EC0F7
:100010001DC01CC01BC01AC019C018C017C016C014
:1000200015C014C013C011241FBECFE5D4E0DEBF3D
:10003000CDBF11E0A0E6B0E0E4EEF3E002C0059031
:100040000D92AA31B107D9F746D0CAC1D9CF20E065
:1000500004C05D9BFECFECB92F5FFC01E20FF11DE8
:10006000E081EE23B1F70895C2988F718FB9779B25
:10007000FECF8FB18FEF8FB9779BFECF8FB1C29A32
:100080000895C2988F7180628FB9779BFECF8FB130
:100090006FB9779BFECF8FB1C29A08950F931F93CC
:1000A000DF93CF9300D000D000D0CDB7DEB78E0164
:1000B0000F5F1F4FB8014AE050E04FD1C801C7DFC2
:1000C00026960FB6F894DEBF0FBECDBFCF91DF915D
:1000D0001F910F9108954F925F926F927F928F922E
:1000E0009F92AF92BF92CF92DF92EF92FF920F93C7
:1000F0001F93CF93DF9310BC8CE089B986E880BD55
:1001000088E18AB9BC98C49A87B38C6287BB80E5C2
:100110008DB981E08EB9C29AA49AA598AC9882E074
:100120006EE3AFDF81E06EE3ACDF86E09DDF682F3A
:1001300086E0A7DF85E06AE4A4DF00E117E2C801FA
:100140000197F1F783E063E09CDF84E065EA99DFE3
:1001500087E067E096DF8AE06BE293DF80E16BE2A5
:1001600090DF81E161E08DDFC8010197F1F78F98A1
:10017000979A2CE2822E21E0922E91EE492E85E56F
:10018000782E00EA602E13E2512EB8ECAB2EB12C83
:10019000CC24CA948799FECF80E690E058DFAC98D3
:1001A00080E06AE76EDF87E060EE6BDF87E060EE9D
:1001B00068DFC4010197F1F7C2984FB8779BFECF73
:1001C0008FB1C29A872D8A95F1F7C2986FB8779B45
:1001D000FECF8FB15FB8779BFECFC29AAC9A88E60C
:1001E00090E035DF80E040DF082FC29880E197E2A1
:1001F000F5013197F1F70197D9F7CFB8779BFECF8B
:10020000DFB0C29A88E030DFE82E80E790E01FDFA1
:1002100010E0C80143DF86E790E019DFC801817074
:1002200090703CDF83E890E012DFC801827090702C
:100230009695879533DF8FE890E009DFC8018470D9
:100240009070969587959695879528DF89E990E037
:10025000FEDEC80188709070E3E096958795EA9578
:10026000E1F71CDF85EA90E0F2DEC8018071907052
:1002700074E0969587957A95E1F710DF81EB90E031
:10028000E6DEC8018072907065E0969587956A9564
:10029000E1F704DF8CEB90E0DADE00741070C80147
:1002A00056E0969587955A95E1F7F8DE87EC90E051
:1002B000CEDECD2DD0E0CE01F1DE81ED90E0C7DEC7
:1002C000CE0181709070EADE8CED90E0C0DECE0150
:1002D0008270907096958795E1DE89EE90E0B7DEAA
:1002E00080E090E0DBDE85EA90E0B1DECE01807157
:1002F000907034E0969587953A95E1F7CFDE8CEBD8
:1003000090E0A5DECE018074907026E096958795EA
:100310002A95E1F7C3DE88EF90E099DE8E2D829575
:100320008F7090E0BBDE89E091E091DEFF24C70191
:100330008F709070B3DE5D9BFECF8AE08CB9C2FFF8
:1003400003C087E06D2D9DDE80E197E2F5013197D6
:10035000F1F7019709F41ECFF9CFFB019F01E89453
:100360004230BCF04532ACF44A3029F497FB1EF41D
:10037000909581959F4F642F77271ED0805D8A339B
:100380000CF0895D8193CB010097A9F716F45DE22B
:1003900051931082C90100C0DC01FC01672F7191EB
:1003A0007723E1F7329704C07C916D93708362915B
:1003B000AE17BF07C8F30895AA1BBB1B51E107C0C6
:1003C000AA1FBB1FA617B70710F0A61BB70B881FE5
:1003D000991F5A95A9F780959095BC01CD01089574
:0403E000F894FFCFBF
:1003E40053656E642E2E2000526561642E2E20000B
:1003F4004366673A20000A2020205052494D5F523C
:10040400583D000A2020205057525F55503D000AA5
:100414002020204352434F3D000A202020454E5FB8
:100424004352433D000A2020204D41585F52543D21
:10043400000A20202054585F44533D000A20202005
:1004440052585F44523D000A5374617475733A20E4
:10045400000A20202046554C4C303D000A20202024
:1004640052585F504950453D000A202020434C45D6
:1004740041525F494E543D000A205061636B6574DC
:1004840073206C6F73743A20002072657472616E0D
:0A049400736D69747465643A20000A
:00000001FF
