:1000000012C024C023C022C021C020C01FC01EC0F7
:100010001DC01CC01BC01AC019C018C017C016C014
:1000200015C014C013C011241FBECFE5D4E0DEBF3D
:10003000CDBF11E0A0E6B0E0EEEDF3E002C0059028
:100040000D92A433B107D9F746D0C7C1D9CF20E06C
:1000500004C05D9BFECFECB92F5FFC01E20FF11DE8
:10006000E081EE23B1F70895C2988F718FB9779B25
:10007000FECF8FB18FEF8FB9779BFECF8FB1C29A32
:100080000895C2988F7180628FB9779BFECF8FB130
:100090006FB9779BFECF8FB1C29A08950F931F93CC
:1000A000DF93CF9300D000D000D0CDB7DEB78E0164
:1000B0000F5F1F4FB8014AE050E04CD1C801C7DFC5
:1000C00026960FB6F894DEBF0FBECDBFCF91DF915D
:1000D0001F910F9108954F925F926F927F928F922E
:1000E0009F92AF92BF92CF92DF92EF92FF920F93C7
:1000F0001F93CF93DF9310BC8CE089B986E880BD55
:1001000088E18AB9BC98C49A87B38C6287BB80E5C2
:100110008DB981E08EB9C29AA49AA598AC9882E074
:100120006EE3AFDF81E06EE3ACDF86E09DDF682F3A
:1001300086E0A7DF85E06AE4A4DF00E117E2C801FA
:100140000197F1F783E063E09CDF84E065EA99DFE3
:1001500087E067E096DF8AE06BE293DF80E16BE2A5
:1001600090DF81E161E08DDFC8010197F1F78F98A1
:10017000979A3CE2A32E31E0B32E21EE522E95E564
:10018000492E80EA782E03E2602EC8ECD0E0882465
:100190008A941AE0912E80E690E059DFAC9880E0D6
:1001A0006AE76FDF87E060EE6CDF87E060EE69DFB3
:1001B000C5010197F1F7C2985FB8779BFECF8FB169
:1001C000C29A842D8A95F1F7C2987FB8779BFECFAB
:1001D0008FB16FB8779BFECFC29AAC9A89E690E058
:1001E00036DF80E041DF082FC29880E197E2FE0110
:1001F0003197F1F70197D9F78FB8779BFECFEFB022
:10020000C29A88E031DFC82E81E790E020DF10E05D
:10021000C80144DF8BE790E01ADFC801807490705A
:10022000B6E096958795BA95E1F738DF87E890E0D4
:100230000EDFC80180729070A5E096958795AA950B
:10024000E1F72CDF83E990E002DFC8018071907054
:10025000F4E096958795FA95E1F720DF80EA90E043
:10026000F6DEC80188709070E3E096958795EA9570
:10027000E1F714DF8DEA90E0EADEC8018470907047
:10028000969587959695879509DF88EB90E0DFDE58
:10029000C801827090709695879500DF85EC90E09C
:1002A000D6DEC80181709070F9DE83ED90E0CFDE7C
:1002B000FF24C701F3DE8BE790E0C9DEC70180743D
:1002C000907056E0969587955A95E1F7E7DE87E8B6
:1002D00090E0BDDEC7018072907045E096958795ED
:1002E0004A95E1F7DBDE83E990E0B1DEC70180717A
:1002F000907034E0969587953A95E1F7CFDE8DEDD5
:1003000090E0A5DEC7018E70907096958795C6DE49
:100310008BEE90E09CDEC70181709070BFDE8AEFAB
:1003200090E095DE8C2D82958F7090E0B7DE83E2B1
:1003300091E08DDEDD24C6018F709070AFDE5D9B95
:10034000FECF9CB880E29EE4FE013197F1F7019761
:10035000D9F721CFFB019F01E8944230BCF0453230
:10036000ACF44A3029F497FB1EF4909581959F4F89
:10037000642F77271ED0805D8A330CF0895D8193CE
:10038000CB010097A9F716F45DE251931082C901E1
:1003900000C0DC01FC01672F71917723E1F73297F0
:1003A00004C07C916D9370836291AE17BF07C8F350
:1003B0000895AA1BBB1B51E107C0AA1FBB1FA617AC
:1003C000B70710F0A61BB70B881F991F5A95A9F7FE
:0E03D00080959095BC01CD010895F894FFCF63
:1003DE000A53656E642E2E2000526561642E2E2007
:1003EE00000A436F6E6669673A20000A2020205289
:1003FE00585F44523A20000A20202054585F44533C
:10040E003A20000A2020204D41585F52543A2000D5
:10041E000A202020454E5F4352433A20000A2020F6
:10042E00204352434F3A20000A2020205057525F5B
:10043E0055503A20000A2020205052494D5F525804
:10044E003A20000A5374617475733A20000A202012
:10045E002052585F504950453A20000A202020541F
:10046E00585F46554C4C303A20000A5472616E73F8
:10047E00696D697373696F6E2073746174653A2068
:10048E000A2020205061636B657473206C6F737447
:10049E003A20002072657472616E736D69747465B2
:0404AE00643A20008C
:00000001FF
